:100000000C9489020C94F91A0C94C1020C94C1024C
:100010000C94C1020C94C1020C94C1020C94C10254
:100020000C94C1020C94C1020C94D7220C94A92305
:100030000C94C31D0C94C1020C94C1020C94C10217
:100040000C94C1020C94C1020C94C1020C94C10224
:100050000C94C1020C94681E0C94C1020C94C10251
:100060000C94C1020C94C1020C94C1020C94C10204
:100070000C94C1020C94C1020C94C1020C94C102F4
:100080000C94C1020C94C1020C94C1020C94C102E4
:100090000C94C1020C94C1020C94C1020C94C102D4
:1000A0000C94C1020C94C1020C94C10237053705AF
:1000B00063056305D105EF05DE06DE06F4056A0675
:1000C0007B067B06EF186119F718C118C518FB18D5
:1000D000C818FE180919D3185719D7180D19DB18A5
:1000E00011193B19DF1815194519E5181B192519A0
:1000F000CC180219CF180519EA182019311951190D
:100100005319BD18F3186A19351A3B1A291A2F1AF0
:10011000411A471A4D1A1124382430253824302525
:100120008424A7243025FE240D2514001A0009007C
:100130001300050004281524162117220A001D00AB
:100140001B000600070019000000000029412C4296
:100150002B430D000F0018001C003400100011325A
:1001600008310C3412380E000B003600370038000E
:100170002A454C4628440000C752010001000100F6
:100180000100010001000100010001000100010067
:100190000100010001000100010001000100010057
:1001A0000100150010000B00160019000800AC003B
:1001B000AA00A900AB00120027001E001F002000AB
:1001C000AE00A800AD000100010001000100010027
:1001D0000100010001000100010001000100010017
:1001E0000100010001000100010001000100010007
:1001F000010079007D007C007B007A00390050000E
:10020000510052004F0049004A004E004B004D0083
:100210002A004C002800010001000100010001003B
:1002200001000100010001000100010001000100C6
:1002300001000100010001000100010001000100B6
:1002400001000100010001000100010001001E0287
:100250001E02010001000100010001000100010077
:10026000010001000100010001002F02240225020B
:100270002602300233022102220223022E0235021C
:100280001E021F0220023102010001002602270285
:100290002D0001000100010001000100010001002A
:1002A0000100010001000100010001000100010046
:1002B000010001000100010001002F0024002500C1
:1002C0002600300033002100220023002E003500DC
:1002D0001E001F0020003100010001003700270030
:1002E0002D020100010001000100010001000100D8
:1002F00001000100010001000100010001000100F6
:100300000100010001000100010045004000410022
:100310004200460044003D003E003F008400430090
:100320003A003B003C00480001000100E3002C00C3
:100330002B0001000100010001000100010001008B
:1003400001000100010001000100010001000100A5
:10035000010001000100010001001E001F0020003B
:100360002100220014001A000800150017000400E4
:100370001600070009000A00000000001D001B0015
:100380000600230024002500260027001C0018007A
:100390000C00120013000B000D000E000F001000E7
:1003A00005001100190000000100120362006C003A
:1003B00069007A007A0061007200640000000A039C
:1003C00054004F0044004F000000040309040902D8
:1003D0003B00020100A0FA09040000010301010032
:1003E00009211101000122400007058103080001D5
:1003F000090401000103000000092111010001228C
:10040000B60007058203200001120100020000006F
:1004100008EDFE000000010102000105010902A132
:100420000185020901A10005091901290815002506
:1004300001950875018102050109300931158125F1
:100440007F95027508810609381581257F9501750C
:10045000088106050C0A38021581257F950175086B
:100460008106C0C005010980A101850319012AB7D1
:1004700000150126B700950175108100C0050C0913
:1004800001A101850419012AA002150126A00295E7
:100490000175108100C005010906A1018506050747
:1004A00019E029E715002501950875018102050766
:1004B000190029EF1500250195F075018102050845
:1004C00019012905950575019102950175039101A1
:1004D000C005010906A101050719E029E715002556
:1004E00001950875018102950175088101050719BB
:1004F0000029FF150026FF009506750881000508F4
:100500001901290595057501910295017503910160
:10051000C00011241FBECFEFDAE0DEBFCDBF04B6AE
:1005200003FE18C08091FE029091FF02A09100038B
:10053000B09101038730904BA740B04B59F4109213
:10054000FE021092FF021092000310920103E0E0FD
:10055000F8E3099511E0A0E0B1E0E0E5FCE402C0B9
:1005600005900D92AA3BB107D9F722E0AAEBB1E0C2
:1005700001C01D92AE3FB207E1F70E94E9150C944D
:1005800026260C9400008830B0F46830A0F4453082
:1005900090F498E2899FF001112485E0689FE00DB6
:1005A000F11D1124E40FF11DEE0FFF1FE65DFE4F5C
:1005B00085919491089581E090E008950E94C3028E
:1005C000089581E0089581E008950E94E30208956E
:1005D00008950E94E8020895A5E0B0E0E2EFF2E09D
:1005E0000C94922549835A833091C10189819A8163
:1005F000311114C0662359F0222349F00E94BC082F
:10060000182F682F89819A810E94980803C00E9440
:10061000AA08182F69817A81812F04C00E94BC0822
:1006200069817A810E94E00F2596E3E00C94AE2563
:10063000FC01262F408151816281738184810E9457
:10064000EC02089581E00895CF93DF93EC0160E020
:100650000E941803BE010E94E902DF91CF91089524
:1006600008950E9461070E9430032FEF84E39CE00D
:10067000215080409040E1F700C0000008950E94A2
:1006800031030E948E1E08950E9431030E94B21E03
:1006900008950F931F93CF93DF938C0161E00E9425
:1006A0001803EC01B8010E94E502882309F442C056
:1006B000B801CE010E941D1A8823E1F1B801CE01D4
:1006C0000E9499188823B1F1B801CE010E948319C4
:1006D000882381F1F8018281882341F1C3308CE7BE
:1006E000D807D1F040F4C115FCE7DF0791F0C13025
:1006F000DC47A1F01BC0CB35ECE7DE07A9F0CC3519
:10070000FCE7DF0771F0CA35DC4781F40E94320D47
:100710000DC00E943F030EC00E943A0D0E94440388
:1007200009C00E94280D02C00E94360DC8010E9417
:10073000E10201C080E0DF91CF911F910F910895F8
:100740000E949C1D0E94C70308950E94CB030E9433
:10075000A51D0895089581E008950895CF93DF932E
:10076000D82F0E94AB03C82F882319F08D2F0E9429
:10077000AD038C2FDF91CF9108950895CF93C82FAB
:100780000E94AA038C2F0E94AE03CF91089580E0AF
:100790000E94BE0308950E94241C0E94BE03089577
:1007A000CF930E94241CC82F8091BC01C81779F0F8
:1007B000C093BC010E94311E6093BD017093BE01C5
:1007C0008093BF019093C0018C2F0E94BE03CF91F4
:1007D0000895ABE0B0E0EFEEF3E00C9493254F8387
:1007E000588769877A878B8761110E94700C9E01F8
:1007F0002F5F3F4F86E0F90111928A95E9F785E076
:10080000FE013796D90101900D928A95E1F7898111
:100810009A814C815D81452B31F09F3F31F491E00D
:100820008F3F19F403C091E001C090E090FF09C030
:1008300049815A816B817C818D819E810E94930BBD
:1008400005C0C9010E9422038111F2CF2B96E2E07C
:100850000C94AF25FC01808191810E94EE080895DF
:10086000662319F00E946E1602C00E94C9160E94EB
:1008700040170895CF93882309F450C0C82F8CEFF8
:100880008C0F813AD0F46C2F80910001909101017E
:100890000E94C01C882349F06C2F80910001909128
:1008A00001010E944E1D0E94940C6C2F809100014A
:1008B000909101010E94401D0CC080E28C0F883095
:1008C00058F4C77081E001C0880FCA95EAF70E940A
:1008D0004A0C0E94940C22C0EBE5EC0FE33040F48C
:1008E000F0E0EE58FE4F808190E00E94601C16C040
:1008F000E8E5EC0FEB3150F4F0E0EE0FFF1FE45CA5
:10090000FE4F808191810E94851C08C083E38C0F7B
:10091000833120F461E08C2F0E943004CF91089540
:100920008823A9F19CEF980F913A40F4682F8091A9
:100930000001909101010E944E1D0DC090E2980FA0
:10094000983060F4877091E001C0990F8A95EAF7BA
:10095000892F0E94500C0E94940C08959BE5980FDB
:10096000933028F480E090E00E94601C089598E5A0
:10097000980F9B3128F480E090E00E94851C089538
:1009800093E3980F933118F460E00E9430040895C7
:100990001F93CF93DF93182FEB010E943A04209707
:1009A00041F08FE99FE00197F1F700C00000219727
:1009B000F6CF812F0E949004DF91CF911F9108956F
:1009C000893319F060E070E002C060E570E00E94D9
:1009D000C8040895882321F00E944A0C0E94940CB8
:1009E0000895882321F00E94500C0E94940C0895D1
:1009F000A0E0B0E0EEEFF4E00C948D257C01162F22
:100A0000C72FFC01D281058102950F700E94400C16
:100A10008823E9F0DD23D9F08C2F807F803451F0DA
:100A200080E2810F883098F0011104C08C2F807E05
:100A3000803269F08091DA0282FF09C082E00E9470
:100A4000F60C0E94400C91E0D82ED92601C0D12C82
:100A5000CC2EC2948FE0C8228C2D90E08C30910572
:100A600008F0ACC1FC01EA5AFF4F0C947D258C2F95
:100A7000807FCF70882311F0C295C07FDD2399F06D
:100A8000CC2309F487C180E2810F883010F0111166
:100A900004C08C2F0E944A0C03C08C2F0E94600C53
:100AA0000E94940C77C1812F0E949004CC2309F4FA
:100AB00085C180E2810F883038F1112329F18C2F14
:100AC0000E94660C24C08C2F807FCF70803211F082
:100AD000C295C07F112319F01130D1F143C080912C
:100AE000DA0282FD17C0DD2349F0CC2329F08C2FD8
:100AF0000E944A0C0E94940C80E04DC180E00E944C
:100B00009004CC2309F45AC18C2F0E94500C0E94EF
:100B1000940C54C1DD2371F0002341F0013031F415
:100B20000E94730C8C2B0E947D0C48C10E94730C98
:100B30008C2B23C0011103C00E948A0C2EC00130EF
:100B400009F43CC18C2F0E94F1040E948A0C36C12A
:100B5000DD2321F0063008F031C10EC0053008F069
:100B60002DC11BC0DD2361F0002331F0F701858129
:100B700080FF10C18F7085838C2F0E94EA041EC1F4
:100B8000002359F0193309F016C1FFEF27EE83E077
:100B9000F15020408040E1F70CC18C2F0E94F104FD
:100BA0000DC18C2F86958695837019F0813061F088
:100BB00005C1DD2321F0812F9C2F937002C080E0BE
:100BC00090E00E94601C02C1DD2321F0812F9C2F48
:100BD000937002C080E090E00E94851CF7C06D2FEA
:100BE000812F0E943004F2C08C2F8370B1F5D11197
:100BF000E9C0412F429546954770440F440F812F1D
:100C00008F7090E09C01042E02C0220F331F0A94C3
:100C1000E2F714FF0AC08FE090E002C0880F991F2E
:100C20004A95E2F78095909502C080E090E0C695E5
:100C3000C695C370822B932BC23049F058F4C13053
:100C400019F00E94CB07BEC00E94C207BBC00E9421
:100C5000D407B8C00E94BF07B5C0DD2319F08C2FA0
:100C6000817001C08695882309F4ACC0412F42955C
:100C700046954770440F440F812F8F7090E09C0180
:100C8000042E02C0220F331F0A94E2F714FF0AC099
:100C90008FE090E002C0880F991F4A95E2F7809597
:100CA000909502C080E090E0C695C695C370822BF7
:100CB000932BC23049F058F4C13019F00E94330828
:100CC00081C00E942A087EC00E943C087BC00E940E
:100CD000E00778C0CF70DD2339F08C2F0E94F80731
:100CE000812F0E94EA046EC0812F0E94F1048C2F94
:100CF0000E94080867C0123F21F128F4103F41F01C
:100D0000113FC1F043C0133F19F1143F79F03EC0C9
:100D1000DD2341F0053008F051C08C2F8F710E9407
:100D20001A084CC0063008F049C0F7CF8091DA02AB
:100D300082FD18C0DD2339F08C2F8F710E94F807D7
:100D40003DC0DD23C9F38C2F8F710E94080836C087
:100D5000DD2329F08C2F8F710E94EC072FC00E9499
:100D6000E7072CC0DD2349F0CF718C2F0E94F807D4
:100D700063E08C2F0E94D80C21C081E00E94F60C09
:100D80000230E0F082E00E94F60C18C0DD2331F062
:100D9000002391F2812F0E943A0410C0002399F29F
:100DA000193349F49FEFE7EEF3E09150E040F04053
:100DB000E1F700C00000812F0E94900488EF8C0DA5
:100DC000843020F40E94241C0E94BE03DD2089F0A0
:100DD0000E943C0C80FD0DC0F70112820E94360C6F
:100DE0000E94F807C7010E9416070E94360C0E9455
:100DF0000808CDB7DEB7E8E00C94A9250F931F9340
:100E0000CF93DF93EC01688179818A810E94F90890
:100E10008C010E9445080E94B007B801CE010E94D3
:100E2000F804DF91CF911F910F910895CF93DF9335
:100E3000EC01988189812B813C81232B31F08F3FFC
:100E400031F481E09F3F19F403C081E001C080E0EC
:100E500080FD1AC0CE010E94490381110FC00E947B
:100E6000400C882389F08A81882371F08091DA020E
:100E700082FF0AC082E00E94F60C06C0CE010E94EA
:100E8000FE06CE010E942403DF91CF91089580E0F9
:100E900090E00E94601C80E090E00E94851C0E940F
:100EA000700C0E94940C0E945F170E9440170895D6
:100EB00080910001909101010E945C1D0E944707F2
:100EC00008950E945A0C0E945807089592959F70A9
:100ED000963079F010F4925001C09A50923068F434
:100EE000803F69F018F4883E40F409C0843F29F43B
:100EF00006C0883E20F0813F11F080E0089581E037
:100F00000895FC019081818123813481232B31F06C
:100F10008F3F31F481E09F3F19F403C081E001C0AD
:100F200080E080FD07C0808191810E94EE080E94D0
:100F30006607089580E00895A5E0B0E0E2EAF7E0F2
:100F40000C9493252596E2E00C94AF25A6E0B0E042
:100F5000ECEAF7E00C9493252696E2E00C94AF259A
:100F6000089508950E94B10708950E94B207089558
:100F70000E94B5079093D9018093D80108950E94EB
:100F8000B80708952091D8013091D901822B932B75
:100F90000E94B80708952091D8013091D901822389
:100FA00093230E94B80708952091D8013091D90168
:100FB000822793270E94B80708950E94B1070895D9
:100FC0000E94DD079093D7018093D601089580E0B9
:100FD00090E00E94E007089521E030E0A90102C0FE
:100FE000440F551F8A95E2F7CA010E94E007089551
:100FF00021E030E002C0220F331F8A95E2F7809192
:10100000D6019091D701822B932B0E94E00708957F
:1010100021E030E002C0220F331F8A95E2F72095CD
:1010200030958091D6019091D701822393230E941D
:10103000E007089521E030E002C0220F331F8A95B7
:10104000E2F78091D6019091D701822793270E94E1
:10105000E00708952091D6013091D701822B932B80
:101060000E94E00708952091D6013091D701822394
:1010700093230E94E00708952091D6013091D70173
:10108000822793270E94E00708950895962F97706E
:10109000A1E001C0AA0F9A95EAF793E076956795CB
:1010A0009A95E1F7660F771F660F771FFA01E60F33
:1010B000F71F40E050E0682F70E090819B01042E04
:1010C00002C0369527950A94E2F7217021952927C9
:1010D0002A23292721934F5F5F4F4430510569F739
:1010E0000895FB01782F777023E0969587952A95D0
:1010F000E1F7880F991F880F991FE80FF91F40E04B
:1011000050E080E0219130E0072E02C0369527950F
:101110000A94E2F721703327042E01C0220F0A94AB
:10112000EAF7822B4F5F5F4F4430510559F708951E
:10113000282F983070F4853060F4862F622F70E08D
:1011400025E0929F600D711D112442EC51E00E9438
:1011500046080895983070F4853060F4292F90E0A7
:1011600062EC71E035E0239F800D911D11240E94F7
:101170007108089580E00895A0E0B0E0E2ECF8E0A6
:101180000C948C257C010091D6011091D70180919F
:10119000D8019091D901082B192BCFE0D0E0CC24B5
:1011A000C394D12CC6010C2E02C0880F991F0A943B
:1011B000E2F780239123892B21F4219798F7B12C12
:1011C00007C0BC2EB7018C2F0E94EC0F0197A9F32A
:1011D0008B2DCDB7DEB7E9E00C94A825CF93DF9334
:1011E000EC010E94BC08BE010E94EC0FDF91CF9180
:1011F00008951F93CF93DF93EB019091C101992341
:1012000021F0CB010E94EE0813C0882349F0CB01E6
:101210000E94BC08182F682FCE010E94980804C0B5
:10122000CB010E94AA08182FBE01812F0E94EC0F4B
:10123000DF91CF911F9108951F93CF93DF93C091BA
:10124000DA0116E08091DB01C81799F0D0E01C9F0D
:10125000F0011D9FF00D1124E452FE4F4081518199
:1012600062817381848195810E94A6072196C7704F
:10127000E9CFDF91CF911F91089540910C025091D9
:101280000D0260910E0270910F02809110029091F8
:1012900011020E94A60708952091DA019091DB01C6
:1012A00056E02917A9F030E0529FF001539FF00D4E
:1012B0001124E452FE4F7181761306C070817813B9
:1012C00003C07281741306C02F5F3F4F2770E9CFB0
:1012D00080E0089581E008950F931F93CF93DF93EB
:1012E0008091110282958F7009F05AC080910E0290
:1012F000882309F455C08091DA011091DB016091D7
:101300000C0270910D02C0910F02D091100291E079
:101310006F3F09F090E0292F06E0811709F440C0E3
:10132000209721F07F3F21F030E003C031E001C081
:10133000322F90E030FD31C0089FF001099FF00D81
:101340001124DF01A452BE4F11963C91119737131F
:1013500024C03C91361321C012963C911297311152
:101360001CC013964D915C9114974C1B5D0B483C2F
:10137000510598F4809111028F7080618093110261
:10138000EF51FE4F80818F70806180838CE092E00E
:101390000E9416070E941C0903C001968770BDCFEA
:1013A000DF91CF911F910F910895A1E1B0E0EBED96
:1013B000F9E00C9489258C0185E0F801DE011D9689
:1013C00001900D928A95E1F7F801E28090910C026C
:1013D00020910D0240910F025091100241155105CC
:1013E00031F02F3F31F481E09F3F19F403C081E0D9
:1013F00001C080E080FD78C1F801C080D180838089
:1014000094808CE0A82E82E0B82EF0900E02B401F9
:10141000641B750BFF2009F411C180911102382F54
:10142000307F683C710508F0CBC031118AC0D21200
:1014300013C0C91211C0FE2CE1100EC08F70806164
:10144000809311020E943D09C5010E9416078091F8
:101450001102F801858362C18114910439F0FFEF14
:10146000DF1206C081E0CF1203C003C081E001C0DB
:1014700080E080FD03C081E08E2502C080E090E026
:1014800080FF05C04E2D6D2D8C2D0E944C098114BE
:10149000910439F02FEFD21206C081E0C21203C0CE
:1014A00003C081E001C080E080FD03C081E08E25A3
:1014B00002C080E090E0682F6170B62E80FF37C0D8
:1014C0004E2D6D2D8C2D0E944C09F82E81112FC0B0
:1014D000CD86DE868D859E850E94EE08292F229579
:1014E0002F70243020F49F70223028F009C02A5039
:1014F000223088F017C0992351F0811108C00EC125
:10150000992329F0F8019581907F09F407C1805E45
:10151000883040F403C1803F08F400C1815F83300C
:1015200008F4FCC0C8010E941607FB2CF7C0FE2C73
:10153000EE2009F4F3C080911102816080931102C2
:1015400054C0D21206C0C91204C0E11002C0F80192
:1015500099C0C8010E948107882361F1EE2051F1F2
:1015600020911102822F82958F7090E0029774F083
:1015700080910C0290910D0298878F8319869B862B
:101580008A862C87CE0107960E94160786E0F8010E
:10159000ACE0B2E001900D928A95E1F70E946C09EF
:1015A0000E943D090AC0D21611F1C8010E948107AC
:1015B00081112CC0C8010E941607FF24F394AEC00D
:1015C0003111F1CF782D998A888AA6016E2D8989EB
:1015D0000E949C078CE092E00E94160786E0F501CD
:1015E00011928A95E9F70E943D09F12C97C0C91222
:1015F000DCCFE110DACFF8018583C8010E9416071D
:1016000086E0F50111928A95E9F788C0EE2091F203
:1016100020911102822F82958F7090E002970CF436
:10162000B5CF80910C0290910D029A8389831B8221
:101630009D828C822E83CE010196A6CF683C7105D7
:1016400008F044C0FE2CEE2009F4B4CFD21230C012
:10165000C9122EC02091110220FD21C0822F829537
:101660008F70482F50E041155105C9F0F8012583CE
:101670004F30510541F08F5F982F9295907F822FC8
:101680008F70892B8583C8010E94160786E0F801B8
:10169000ACE0B2E001900D928A95E1F73DC086E0A2
:1016A000F801ACE0B2E001900D928A95E1F736C006
:1016B000C8010E948107811169CF80911102816068
:1016C00080931102C8010E94160728C0782D998ABC
:1016D000888AA6016E2D89890E949C0786E0F50103
:1016E00011928A95E9F718C0EE2009F463CFC8017A
:1016F0000E948107F82E882309F45CCF86E0F80168
:10170000ACE0B2E001900D928A95E1F78CE092E0B6
:101710000E942A040E946C090E943D098F2D619647
:10172000ECE00C94A525ACE0B0E0E9E9FBE00C941A
:1017300092254F83588769877A878B879C87CE014C
:1017400007960E94D5098823D1F09F8188852A8534
:101750003B85232B31F08F3F31F481E09F3F19F41B
:1017600003C081E001C080E080FD47C04F81588503
:1017700069857A858B859C850E94A6073EC086E098
:10178000FE013796DE01119601900D928A95E1F7E0
:10179000FF81E8856A857B856115710531F0EF3F32
:1017A00031F481E0FF3F19F403C081E001C080E023
:1017B00080FD23C02091DB0130E0C90101968770D4
:1017C00099274091DA0150E084179507F1F1F983E8
:1017D000EA837D836C8396E0929FD001939FB00D46
:1017E0001124A452BE4FFE01319601900D929A959C
:1017F000E1F78093DB010E941C0916E08091DA0179
:101800009091DB01891771F1189FC0011124845256
:101810009E4F0E94D509882329F1E091DA011E9F8D
:10182000F0011124E452FE4F4081518162817381A5
:10183000848195810E94A6078091DA0190E001964B
:10184000877099278093DA01D9CF0E94610710929F
:10185000DB011092DA01ECE0F2E086E0DF011D929C
:101860008A95E9F72C96E3E00C94AE25809132023C
:1018700085958595859508958091320287700895A4
:1018800090913202977081E009F480E00895809190
:101890005502089590915502892B80935502089521
:1018A00080959091550289238093550208958093E5
:1018B000550208951092550208958091540208959A
:1018C00090915402892B80935402089580959091B1
:1018D00054028923809354020895809354020895FA
:1018E00010925402089580913302089508950E9441
:1018F000760C08950E94770C08959091DA0292FF79
:1019000008C090913302981721F0809333020E940F
:101910007A0C089580913302882329F010923302C3
:1019200080E00E947A0C0895CF93DF93E09100014C
:10193000F0910101809155028083E0910001F091C6
:101940000101908180915402892B80838091330220
:10195000882381F0E0910001F09101019081892BB1
:10196000808380910001909101010E94AA1C811145
:101970000E948A0CC0910001D091010140E250E028
:1019800062E172E0CE010E94CE25892B59F080E2FF
:10199000FE01A2E1B2E001900D928A95E1F7CE013D
:1019A0000E94381CDF91CF9108950E94760C089513
:1019B0009091DA0292FF11C098E0899F9001112462
:1019C000262B209332020E94F807809132028595DF
:1019D000859585950E94D50C08950E94F807089575
:1019E0001092320280E00E94D50C089520913202BC
:1019F0008095822380933202982F977099F430E07B
:101A0000482F082E000C550B2417350759F09091DC
:101A1000DA0292FF07C08595859585950E94080892
:101A20000E94F00C08959091DA0292FB222720F98F
:101A3000281769F080FB92F99093DA028091D9021D
:101A40009091DA020E945B0D82E00E94F60C0895EC
:101A50008091DA0282FB882780F991E089270E9431
:101A6000130D089581E00E94130D089580E00E94F7
:101A7000130D08956FEF7FEF80E090E00E94102635
:101A8000089580E090E00E94EC2521E0873E9E4F83
:101A900009F020E0822F089582E090E00E94E42582
:101AA000089583E090E00E94E425089584E090E0AA
:101AB0000E94EC250895BC0184E090E00E9410266D
:101AC0000895AB01BC018FE090E00E9404260895C8
:101AD000AB01BC0183E190E00E940426089560E020
:101AE00070E0CB010E94680D089560E070E0CB01CA
:101AF0000E94610D0E946F0D089567EE7EEF80E0F9
:101B000090E00E94102660E082E090E00E94F225C2
:101B100060E083E090E00E94F2251092D9011092DB
:101B2000D80160E074E184E090E00E94102660E05B
:101B300086E090E00E94F2256FEF87E090E00E943F
:101B4000F22540E050E0BA0188E090E00E940426CF
:101B500060E08DE090E00E94F22540E050E0BA01A4
:101B600088E190E00E94042660E087E190E00E9416
:101B7000F22540E050E0BA018CE190E00E9404269A
:101B800060E070E080E290E00E94102640E050E0CB
:101B9000BA0188E190E00E9404260E94750D089524
:101BA0000E947D0D08958EE090E00E94E42591E072
:101BB000811101C090E0892F0895682F8EE090E098
:101BC0000E94F2250895A5E0B0E0E9EEFDE00C9456
:101BD00091250E94251E8C018091560290915702FA
:101BE00008171907A1F08FEF89838A831B820E944F
:101BF000251E8160782F9D838C8349815A816B815A
:101C00008D810E94E9031093570200935602259696
:101C1000E4E00C94AD250E94311E60936402709341
:101C200065028093660290936702609360027093EE
:101C300061028093620290936302089581E00895A7
:101C40000E94FD12089508950E94230E08950E9497
:101C5000230E08950E94270E08950E94230E0895D2
:101C60000E942D0E08950E94230E089580E191E1B7
:101C70000E941A1C0E94330E0E94300E08950E948A
:101C8000240E0E94230E08950E942F110E94BD036E
:101C900008950E941C1E0E94D0100E9423130E94CF
:101CA0005D120E94440E0E9481180E9433130E940C
:101CB0002A0E0895A5E0B0E0E0E6FEE00C948B2546
:101CC0000E941E0E811103C00E94E30D52C00E94AB
:101CD000821288E5E82E82E0F82E670100E0F60126
:101CE00011916F01802F0E944D1181270F5F0830E5
:101CF00019F08823A1F302C0882331F38091680290
:101D000081FD0E9453110E94200EA82E10E0812F09
:101D10000E944D11B82EF701C080C82611F100E0D5
:101D2000DD24D3948C2D8D21B1F0AA20A1F009835C
:101D30001A8391E08B2D8D2109F490E09B830E9402
:101D4000251E8160782F9D838C8349815A816B8108
:101D50008D810E94E9030F5FDD0C053019F7F70153
:101D6000B0821F5FFFEFEF1AFF0A183081F60E9462
:101D70000B0E0E94FD120E9481170E94D00325962F
:101D8000EAE00C94A7251F93CF93DF930E94F10FF5
:101D9000EC01C11580E5D807E8F5C11590E4D90735
:101DA00008F0A8C0C03ED10530F5CD3CD10508F003
:101DB00094C0C83AD10578F4C53AD10508F083C07B
:101DC000C130D10509F47CC008F4F2C0C430D1059B
:101DD00008F0F1C0EDC0C33CD10508F0E9C0C85A15
:101DE000D0E0CC0FDD1FCB58DE4F0990D881C02D3D
:101DF000CE019464E1C0C11580E2D80708F0CBC0E1
:101E0000C11591E0D90708F06BC0C83ED10508F4B0
:101E1000D2C0CEC0C03682E5D80728F5C03492E5DE
:101E2000D90708F079C0C03282E5D80708F06CC045
:101E3000C11592E5D90708F481C04C2F4695469507
:101E400080E2489FA0011124C37021E030E0C90165
:101E500002C0880F991FCA95E2F7EA01C82BD92B57
:101E6000CE019D68A9C0C03A82E5D807B8F48C2F8E
:101E70008F71C03892E5D90708F07BC086958695AA
:101E800090E2899F90011124C37081E090E002C02C
:101E9000880F991FCA95E2F79A6868C0C03C82E52E
:101EA000D80708F46DC0C03E92E5D90708F080C09D
:101EB000CF71DD27DC2FCC27CE01806F906A7CC0EC
:101EC00081E090E079C0C55AD0E0C555DE4F8881E9
:101ED000C82FD0E0CE0190646FC0CE0190656CC079
:101EE0008D2F0E948D10182FCE0199270E94F10F7F
:101EF0001F715CC0CE0199270E94F10FCC27DF70C3
:101F0000D06A8C2B9D2B58C0CF71D0E0DC2FCC2712
:101F1000CE01816F906A50C08C2F8F718695869507
:101F200090E2899F90011124C37081E090E002C08B
:101F3000880F991FCA95E2F79C6818C08C2F8F7183
:101F40000E948D1095E0D695C7959A95E1F7CF70D0
:101F5000D0E0DC2FCC27282F30E084FF05C084E0C0
:101F6000220F331F8A95E1F7D069CE01822B932B84
:101F700023C090E0D82FCC27CE01846F906A1CC07C
:101F80008C2F8F710E948D108F7190E0D82FCC27ED
:101F9000CE01906211C08D2F8F710E948D10182F6D
:101FA000CE0199270E94F10F1F719062912B04C0FE
:101FB00080E090E001C0CE01DF91CF911F910895A4
:101FC000783038F4653028F4462F672F0E94DE02FF
:101FD000089580E090E008950E94E00F0E94C30EF3
:101FE00008958238910569F1B0F48133910509F4BF
:101FF00075C048F48932910509F467C08A329105A9
:1020000009F471C008958533910509F459C08933E5
:102010009105B9F00895833E910589F138F4803E29
:102020009105D1F0823E910529F10895863E9105F2
:10203000C9F1873E9105D9F1843E910509F06CC044
:1020400027C02091D90220FD57C021FD55C0209105
:10205000DA0223FD5BC008958091D90280FD48C05B
:102060008091DA0280FF48C08091D90284FD46C089
:1020700083EE51C08091D90282FF3CC0F5CF8091A0
:10208000D90282FD37C08091DA0280FD35C0ECCFE5
:102090008091DA0281FF36C08091D90284FD2EC082
:1020A00087EE39C08091D90283FF2AC0F5CF809195
:1020B000D90283FD25C08091DA0281FD23C0ECCFD7
:1020C0008091D90285FD22C01FC08091D90285FD73
:1020D0001BC08091DA0283FF19C00AC08091D90227
:1020E00086FD16C017C08091D90286FD13C010C0AE
:1020F00089E311C082EE0FC080EE0DC080E00BC0FE
:1021000086EE09C084EE07C085E305C089E203C0FE
:102110008AE201C081E390E008959091D90292FF94
:102120000DC0282F2871283019F4877F846006C0DD
:10213000282F2471243011F48B7F886093FF0DC009
:10214000282F2871283119F4877E846106C0282F32
:102150002471243111F48B7E88612091DA0220FFF2
:102160000DC0382F3871383019F4877F816006C070
:10217000382F3171313011F48E7F886021FF0DC00E
:10218000282F2871283119F4877E816106C0282FF5
:102190002171213111F48E7E886194FD877E08952E
:1021A0001092D5021092D6021092D7021092D80245
:1021B0000895CF92DF92EF92FF926B017C010E9413
:1021C000FD1281110EC00E94311EC61AD70AE80AFC
:1021D000F90AC092D502D092D602E092D702F092CC
:1021E000D802FF90EF90DF90CF9008950F931F9348
:1021F0000E94FD12882319F00E94311E0EC00E9419
:10220000311E0091D5021091D6022091D702309153
:10221000D802600F711F821F931F1F910F910895A5
:1022200080E008950E943A0D08950E9482122FEFD7
:1022300086E791E0215080409040E1F700C0000027
:102240000E94821280E00E944D1180FF04C00E9413
:1022500012110E948E1E08950E94151108950E9469
:10226000410D811102C00E94D00D0E944C0D80933F
:1022700068020E94560D9093DA028093D9020E9460
:102280002C110E94510D90E00E94BF078091D60151
:102290009091D7010E94DD070895E82FF0E0EC51FE
:1022A000FD4F80810895089580EA8A95F1F7089599
:1022B00000C008950E945411089508950E945D1170
:1022C00008950E945E1108950E945D1108950E9474
:1022D000641108950E945D110895A4E0B0E0E3E761
:1022E000F1E10C9491250E94FD126091EC0288238B
:1022F000E9F119821A821B821C82862F90E08E01DE
:102300000F5F1F4FB8018C519D4F0E9441138823CE
:1023100089F08091DB0290E044E050E0B8018C51FC
:102320009D4F0E94CE2521E020936902892B69F4FC
:1023300010E019C0809169028823D1F384E0F8018C
:1023400011928A95E9F710926902E091DB02F0E0C0
:10235000EC51FD4F89819A81AB81BC81808391834F
:10236000A283B38311E00E9461110DC070E06C5133
:102370007D4F8091DB0290E08C519D4F0E94CA13EB
:102380000E946A1110E0812F2496E4E00C94AD25A0
:10239000F894E82FE295EF70F0E031A1282F2F702C
:1023A00081E090E001C0880F2A95EAF7982F909578
:1023B000932391A392A1892B82A3789408950F93DC
:1023C0001F93CF93DF93C3EBD1E089918F3F11F03F
:1023D0000E94C81181E0C73BD807B9F7CEEAD1E027
:1023E00003EB11E089918F3F11F00E94C8110C1787
:1023F0001D07C1F7DF91CF911F910F910895A0E0C4
:10240000B0E0E5E0F2E10C948D258C01C62FD0E020
:10241000CE018D549E4F7C01FC0190819F3F09F4B9
:1024200047C0D62EF894E92FE295EF70F0E081A135
:102430009F7021E030E001C0220F9A95EAF7822BCD
:1024400081A382A12095282322A378940E94581169
:10245000EEEAF1E043EB51E031E0C12C21912F3F56
:1024600089F0A22FA295AF70B0E090968C9190E089
:102470002F7002C0959587952A95E2F780FD02C0DE
:10248000832F01C080E0C82A330F4E175F0731F752
:10249000F70180818F3F11F00E94C81161E0C110E7
:1024A00001C060E08D2D0E945A11C00FD11FC8825B
:1024B000CDB7DEB7E8E00C94A925809102018091A8
:1024C0000201811102C094E001C090E09093EC02FF
:1024D00084E0891B8093DB020E94DF1188E0E4EE38
:1024E000F2E0DF01982F1D929A95E9F7ECEDF2E00A
:1024F000DF011D928A95E9F784E00E94C0120E94D4
:1025000067110895A8E0B0E0E8E8F2E10C949025A6
:102510008E010F5F1F4F88E0F80111928A95E9F74D
:10252000F12C6F2DC8010E94FF11F394F4E0FF120B
:10253000F8CF48E050E0B8018CED92E00E94CE2543
:1025400021E0009709F420E0892B41F088E0F801B0
:10255000ACEDB2E001900D928A95E1F76091EC024A
:1025600070E06C517D4F44E08CED92E00E94C1120E
:10257000182F0E946D11812B2896E5E00C94AC2554
:102580000895EF92FF920F931F93CF93DF937C01F7
:102590008B01C42F222349F081E080936C020E94BA
:1025A000251E90936B0280936A0280916C028111C8
:1025B00002C080E01AC080916A0290916B020E9472
:1025C0003D1E0597B0F3D0E0AE01B701C8010E94EF
:1025D000CE25892B39F0AE01B701C8010E94DB2559
:1025E00081E001C080E010926C02CDB7DEB7E6E07A
:1025F0000C94AB250E94D30D0895CF93DF93809167
:102600006F02811117C0C8ECD0E00E9463258111D0
:102610000AC08FE39CE90197F1F700C00000219701
:10262000A1F782E001C081E080936F02823011F453
:102630000E945E2581E090916F02913009F080E068
:10264000DF91CF9108950E94410D811102C00E9437
:10265000D00D0E94FA12809302010E94FD12811196
:102660000E94791308950E94FD12811102C00E94F8
:102670007C13089581E0909170029A3008F080E018
:1026800008950F931F93CF93DF93EC018B018091FB
:1026900070028A3038F4B801CE010E94C71381114C
:1026A0001DC00AC080916D0290916E020E943D1E75
:1026B000843F914080F715C0809170028F3F19F0E0
:1026C0008F5F80937002809170028A3060F00E9468
:1026D000251E90936E0280936D0203C010927002CB
:1026E00002C080E001C081E0DF91CF911F910F9186
:1026F00008950E94B41A08950E94B71A0895A0E0A0
:10270000B0E0E5E8F3E10C948E257901C82F880F3D
:10271000DD0B41155105A9F0FE0193E0EE0FFF1FFF
:102720009A95E1F7ED5FFE4F818192818F589D4F21
:10273000208130E04217530708F49A01A9010E9452
:10274000DB25CE010E949F1BD82E8823D1F00115D6
:102750001105B9F083E0CC0FDD1F8A95E1F7FE018A
:10276000ED5FFE4F438150E00417150708F4A80100
:10277000CD5FDE4F6C817D816F587D4FC7010E9418
:10278000DB258D2DCDB7DEB7E7E00C94AA250E949E
:10279000681508950E9491150895A3E0B0E0E3ED57
:1027A000F3E10C948D2560919502709196028091D1
:1027B0009702909198020E944C1E6B017C0111E0DF
:1027C00084E6C816D104E104F10408F410E00E9484
:1027D000470C898394E6C916D104E104F10438F466
:1027E000E091B701F091B8019585891311E00E943D
:1027F0005D0C8A83111109C0E091B701F091B80115
:1028000011E09685981301C010E00E94730C8B8331
:10281000111109C0E091B701F091B80197858913B2
:1028200002C011E019C000E010E020E030E043E019
:1028300050E0BE016F5F7F4F84E00E947F13182F2E
:10284000882351F00E94311E609395027093960286
:102850008093970290939802812F2396E8E00C943E
:10286000A925A4E0B0E0E7E3F4E10C9491256091A0
:1028700091027091920280919302909194020E9431
:102880004C1E643671058105910528F10E94F610F1
:10289000DC01CB010296A11DB11D89839A83AB8314
:1028A000BC8300E010E020E030E044E050E0BE01F6
:1028B0006F5F7F4F83E00E947F13182F882361F0A2
:1028C0000E94311E60939102709392028093930252
:1028D0009093940201C011E0812F2496E4E00C94BF
:1028E000AD25A0E0B0E0E7E7F4E10C948B257C0196
:1028F0005B016A010E943A13811103C001E010E0FC
:1029000002C00AE010E0C1E0D0E0B501C701F60165
:102910000995811115C021960C171D0794F0CC9FC5
:102920009001CD9F300D300D112480E090E045E303
:102930004A95F1F70000019682179307C1F7E5CF9A
:1029400081E0CDB7DEB7EAE00C94A7250F931F9383
:10295000CF93DF93EC016091B7017091B8016B5F89
:102960007F4F44E050E00E94CE258C0160918D02A3
:1029700070918E0280918F02909190020E944C1E65
:10298000643671058105910510F4012BC1F000E05A
:1029900010E020E030E044E050E0BE0182E00E9420
:1029A0007F13C82F882361F00E94311E60938D022F
:1029B00070938E0280938F029093900201C0C1E0C9
:1029C0008C2FDF91CF911F910F910895A5E0B0E07A
:1029D000ECEEF4E10C948B255B01E090B701F090F4
:1029E000B80101E010E09E012B5F3F4F40E050E056
:1029F00060E070E080E00E947F13182F882309F4C4
:102A00003EC067018FEFC81AD80A609189027091A1
:102A10008A0280918B0290918C020E944C1E643637
:102A200071058105910518F104E010E09E012F5F0A
:102A30003F4F40E050E060E070E081E00E947F1393
:102A4000182F64E070E0C6010E94821891E02D8189
:102A5000281390E0192351F10E94311E60938902DE
:102A600070938A0280938B0290938C0211C064E071
:102A700070E0C6010E9482189D818913D5CFF701AD
:102A800081819281A381B48189839A83AB83BC8342
:102A9000112361F089819A81AB81BC818093850289
:102AA00090938602A0938702B0938802809185025A
:102AB00090918602A0918702B0918802F5018083EF
:102AC0009183A283B383812F2596EAE00C94A725F6
:102AD0000F931F93CF93DF93EC018B0146EE54E1EC
:102AE0000E947114811102C080E016C046EA54E1D0
:102AF000B801CE010E9471148823B1F341E354E17F
:102B0000B801CE010E947114882371F34DEC53E19A
:102B1000B801CE010E947114DF91CF911F910F91E6
:102B200008950F931F93CF93DF938C01C091B7014A
:102B3000D091B801CE01019624E0FB01DC010190A7
:102B40000D922A95E1F764E070E00E948218888374
:102B5000FE01359684E0D80101900D928A95E1F747
:102B600069857A858B859C8500918102109182020E
:102B700020918302309184026017710782079307C6
:102B800051F060938102709382028093830290934C
:102B900084020E94D9100E851F858D850E94570CD6
:102BA000802F0E946D0C812F0E947D0CDF91CF91B0
:102BB0001F910F9108950E942C200E94490E0E949F
:102BC000392008950E943E200E945A0E0E945820EB
:102BD00008950E94BC1D0E9412200E94360E0E9481
:102BE000DB150E94E2150E943F0EFBCF80919F02F1
:102BF00080FF06C06091300170E0660F771F26C02D
:102C000081FF04C06091300184E005C082FF07C0ED
:102C10006091300188E0689FB001112417C0909145
:102C20009E029923D1F060912F01961788F7209189
:102C3000300188E0289F90011124929FA001939F6A
:102C4000500D112470E0CA010E9469256038710599
:102C500040F46115710519F406C068E070E0862F34
:102C600008958FE7089581E0089580919F0280FF85
:102C700008C060912C0170E0759567957595679512
:102C800021C081FF06C060912C0170E075956795A9
:102C900019C082FF04C060912C0170E010C09091B7
:102CA0009D02992399F060912B019617A0F78091CE
:102CB0002C01899FC001112470E00E9469256038B1
:102CC000710540F46115710519F406C061E070E00A
:102CD000862F08958FE7089581E008958D3C21F4B3
:102CE0000E94F615819504C08E3C29F40E94F615C9
:102CF0008093A30208958F3C21F40E94F6158195DC
:102D000004C0803D29F40E94F6158093A202089524
:102D1000893D19F40E94351605C08A3D31F40E94A0
:102D2000351681958093A40208958B3D21F40E946D
:102D30003516819504C08C3D29F40E943516809388
:102D4000A50208959FE2980F983078F421E030E0D2
:102D5000A90102C0440F551F9A95E2F7CA0190914C
:102D6000A102892B8093A10208958D3D21F48091C9
:102D70009F0281600BC08E3D21F480919F02826092
:102D800005C08F3D29F480919F02846080939F024B
:102D900008958D3C39F49091A30297FF35C01092AD
:102DA000A30259C08E3C29F49091A3021916BCF3DA
:102DB0002BC09091A2028F3C29F497FF25C010925E
:102DC000A20249C0803D19F41916CCF31DC09091A0
:102DD000A402893D29F41916BCF41092A4023BC048
:102DE0008A3D19F497FF10C0F8CF8B3D39F49091CC
:102DF000A50297FF09C01092A5022DC08C3D21F4B9
:102E00009091A5021916BCF39FE2980F983080F4B8
:102E100021E030E0A90102C0440F551F9A95E2F766
:102E2000CA0180959091A10289238093A10213C0C9
:102E30008D3D21F480919F028E7F0BC08E3D21F449
:102E400080919F028D7F05C08F3D29F480919F0264
:102E50008B7F80939F028091A202811106C0809196
:102E6000A302811102C010929E028091A4028111DE
:102E700006C08091A502811102C010929D020895A2
:102E80000E94251E2091A202211104C02091A302BC
:102E9000222321F090939C0280939B022091A40214
:102EA000211104C02091A502222321F090939A02BF
:102EB0008093990280EA92E00E94521C0895E0EA11
:102EC000F2E086E0DF011D928A95E9F710929E02FA
:102ED00010929D0210929F020895FC01828181113F
:102EE0000DC0838181110AC08481811107C091E0E6
:102EF0008581811101C090E0892F01C081E081703E
:102F00000895A6E0B0E0E7E8F7E10C94922586E0AA
:102F1000E0EAF2E0DE01119601900D928A95E1F768
:102F20001092A2021092A3021092A4021092A50283
:102F30008B81811104C08C81882309F45FC080914A
:102F40009B0290919C020E943D1EAC0190919E02BA
:102F5000992339F02091310130E02417350758F0DA
:102F60004DC0209132018AE0289F9001112424173E
:102F7000350718F043C09F3F19F09F5F90939E0262
:102F80001B81112361F00E94F615111614F09FEFBA
:102F900001C091E0989F902D11249093A2021C8172
:102FA000112361F00E94F615111614F09FEF01C075
:102FB00091E0989F902D11249093A3023091A2024A
:102FC0003323E1F02091A3022223C1F045EB340327
:102FD000C0011124992319F09093A20203C081E04B
:102FE0008093A20235EB2303C0011124992319F029
:102FF0009093A30203C081E08093A3028D8181118D
:1030000004C08E81882309F45FC080919902909159
:103010009A020E943D1EAC0190919D02992339F0C5
:1030200020912D0130E02417350758F04DC0209134
:103030002E018AE0289F900111242417350718F0EB
:1030400043C09F3F19F09F5F90939D021D81112304
:1030500061F00E943516111614F09FEF01C091E047
:10306000989F902D11249093A4021E81112361F04A
:103070000E943516111614F09FEF01C091E0989F41
:10308000902D11249093A5023091A4023323E1F0F6
:103090002091A5022223C1F045EB3403C001112485
:1030A000992319F09093A40203C081E08093A402B5
:1030B00035EB2303C0011124992319F09093A50245
:1030C00003C081E08093A502BE016F5F7F4F80EA5D
:1030D00092E00E946E1D811105C080EA92E00E947C
:1030E0006D1781110E94401786E0FE013196A0EA1B
:1030F000B2E001900D928A95E1F72696E3E00C94F8
:10310000AE250895FC01680F791F8FEF91E3E61754
:10311000F70771F02191822728E030E087FF03C094
:10312000880F892701C0880F21503109B9F7EFCFE7
:103130000895CF93DF93FC01DB0112968C918823D5
:1031400009F4DDC09F0130572332310508F0D8C0A3
:10315000EF010E94560D9093DA028093D902FE018E
:10316000E150F047E232F10520F4EE59FF4F0C94A4
:103170007D258091D9028160AAC08091DA028860A1
:10318000B2C08091D9028260A2C08091D90220C0D1
:103190008091D90288609BC08091DA021EC0809124
:1031A000DA028260A0C08091D902806190C08091D3
:1031B000D90280628CC08091D902806488C00E944C
:1031C00061078091D902806882C08091D9028860AD
:1031D00084607DC08091DA028260816084C08091C9
:1031E000D9028E7F74C08091DA02877F7CC0809183
:1031F000D9028D7F6CC08091D90220C08091D90204
:10320000877F65C08091DA021EC08091DA028D7FCF
:103210006AC08091D9028F7E5AC08091D9028F7D79
:1032200056C08091D9028F7B52C00E946107809165
:10323000D9028F774CC08091D902877F8B7F47C09E
:103240008091DA028D7F8E7F4EC08091D90282FB01
:10325000222720F991E0922790FB82F990FB83F9D5
:1032600036C08091DA02982F909591708E7F892BCD
:1032700090FB81F938C08091D90286FB222720F982
:1032800091E0922790FB86F922C00E94610780910D
:10329000D90287FB222720F991E0922790FB87F93A
:1032A00016C081E001C080E00E94DD0D1EC080914B
:1032B000D90284FB222720F991E0922790FB84F920
:1032C00006C08091D902982F909590FB80F9809349
:1032D000D9020BC08091DA0283FB222720F991E00A
:1032E000922790FB83F98093DA028091D902909122
:1032F000DA020E945B0D0E94610780E001C081E05C
:10330000DF91CF910895CF93DF9386319C4741F5AC
:10331000EB010E94470C982F8A8120910001309187
:103320000101882379F09A7A81E009F480E08093A2
:10333000A602911102C069E201C065E3C9010E94C1
:10334000401D0AC08091A602811102C069E201C03D
:1033500065E3C9010E944E1D0E94940C80E001C0EB
:1033600081E0DF91CF9108950F931F93CF93DF9367
:10337000C42FD22FFC0182818823B1F04093A9028F
:103380000E94251E9093A8028093A70280E28C0FD2
:10339000883008F04DC0C77081E001C0880FCA9521
:1033A000EAF70E94EA0444C08091A902481330C0A1
:1033B0008091A7029091A8020E943D1E883C910531
:1033C00038F510E21D0FCD17B9F080E28C0F883070
:1033D00040F4C77081E001C0880FCA95EAF70E94E7
:1033E000F104183010F581E09D2F977001C0880F0F
:1033F0009A95EAF70E94EA04802F0E94E0041830B0
:10340000B8F4D77081E001C0880FDA95EAF70AC0F6
:1034100080E28C0F883060F4C77081E001C0880FB3
:10342000CA95EAF70E94F10403C0802F0E94E004CD
:10343000DF91CF911F910F9108950F93FC01E851F7
:10344000FC47E730F10590F5CB01EC57FF4F0C94AA
:103450007D2506E221EE41EE6AE17CE723C007E22A
:1034600025EE45EE6BE17CE71DC006E221EE40EE65
:1034700068E17CE717C007E225EE44EE69E17CE7EE
:1034800011C006E221EE42EE6CE17CE70BC007E2E0
:1034900025EE46EE6DE17CE705C008E221E045EE51
:1034A0006EE17CE70E94B41980E008C0FB018281D4
:1034B000882319F01092A90201C081E00F910895AC
:1034C0008EE1489B02C08150E1F7489BFECF0895F2
:1034D000589880E28A95F1F7589A0895FC012AE0FD
:1034E0002A95F1F728E090E080E031E040E14A954C
:1034F000F1F7880F489B02C08160932700C000004D
:1035000040E14A95F1F7215089F720E12A95F1F73A
:1035100029B100C0000030E13A95F1F721709227FF
:103520002081920F90830895A1E0B0E0EAE9FAE1EA
:103530000C948F2519828C017C01E60EF11C0E156E
:103540001F0551F00E94601ACE0101960E946E1A6A
:10355000F80181938F01F3CF81E09981911180E08F
:103560002196E6E00C94AB25509A589A089550980D
:10357000589AE89AE9E6F0E080818C7F808308958C
:10358000615091E001C0990F6A95EAF720E031E0BF
:10359000992361F0492F482319F0589A232701C035
:1035A000589840E24A95F1F79695F2CF222311F010
:1035B000589A01C0589880E28A95F1F75898089572
:1035C000FF920F931F93CF93DF93EC018C01060FB3
:1035D000111DC017D10741F0F9900E94681A68E0E8
:1035E0008F2D0E94C01AF5CFCDB7DEB7E5E00C9461
:1035F000AC251F920F920FB60F9211240F931F93B9
:103600002F933F934F935F936F937F938F939F93EA
:10361000AF93BF93EF93FF93CF93DF931F92CDB7F9
:10362000DEB719820E94601ACE0101960E946E1ABE
:10363000082F069506950695902F96959570202F44
:103640002570920F292F237096959695920F87706B
:1036500089135FC0898181115CC0063008F059C0B0
:1036600080E18A95F1F7589A509A82E08A95F1F7AD
:1036700000C0589888E0089F80011124D801AD5FF0
:10368000BE4F1696ED91FC9117973097A9F0609177
:10369000B7017091B80114962D913C911597260FA2
:1036A000371F11968D919C911297680F791F139671
:1036B0004C9113978C910995F801ED5FFE4F638152
:1036C000662351F08091B7019091B8012481358132
:1036D000820F931F0E94E01A0E94681A80E18A9567
:1036E000F1F758985098589A80E18A95F1F7F801C7
:1036F000ED5FFE4F6081662351F08091B70190919C
:10370000B80121813281820F931F0E94941A0E9476
:10371000601A0F90DF91CF91FF91EF91BF91AF9120
:103720009F918F917F916F915F914F913F912F91D9
:103730001F910F910F900FBE0F901F9018950F9330
:103740001F93CF93DF93863091050CF06DC0EC0191
:10375000F894509A589885E08A95F1F700009C2FCC
:10376000969595702C2F2570920F892F83709695C2
:10377000969523E0CC0FDD1F2A95E1F7980F8E0177
:10378000092B0E94681A84E08A95F1F700C068E06E
:10379000802F0E94C01A80E18A95F1F75098589ABC
:1037A000489902C000C0FCCF87E090E0489B08C069
:1037B000019721F4509A589A789436C000C0F6CFF9
:1037C000FE01ED5FFE4F6381662381F08091B701BA
:1037D0009091B80124813581820F931F0E94941A21
:1037E000811104C0509A589A78941FC00E94601AA0
:1037F00080E28A95F1F75898509A80E18A95F1F71E
:10380000CD5FDE4F6881662351F08091B7019091C2
:10381000B80129813A81820F931F0E94E01A0E9409
:10382000681A789481E001C080E0DF91CF911F9108
:103830000F9108959093BB018093BA0108959093DE
:10384000B0028093AF0208950E94FD12811103C05F
:103850008091AA020895E091AF02F091B0023097F2
:1038600029F00190F081E02D0995089580E00895F8
:10387000FC01A091AF02B091B002109791F080913D
:103880003B01882341F08091D90287FF04C08081E9
:10389000818386E08083CF011296ED91FC9113978E
:1038A00009950895E091AF02F091B002309739F098
:1038B00022E0DC012C930480F581E02D0995089528
:1038C000A3E0B0E0E6E6FCE10C9493252091AD0284
:1038D0003091AE0228173907A1F09093AE02809381
:1038E000AD02E091AF02F091B002309751F023E0C9
:1038F00029839B838A830680F781E02DCE01019680
:1039000009952396E2E00C94AF25A3E0B0E0EBE844
:10391000FCE10C9493252091AB023091AC02281766
:103920003907A1F09093AC028093AB02E091AF0213
:10393000F091B002309751F024E029839B838A8371
:103940000680F781E02DCE01019609952396E2E0ED
:103950000C94AF25FC01329680913B01882331F015
:103960008091D90287FF02C09EE101C096E080E00D
:10397000915028F021912223D9F38F5FF9CF089538
:10398000662351F120913B012223E9F02091D902D5
:1039900027FF19C0462F4695469546954E31E0F4CF
:1039A000677021E030E002C0220F331F6A95E2F712
:1039B000FC01E40FF11D828190E02823392381E08E
:1039C000232B69F409C0FC013296089621916217F5
:1039D00029F0E817F907D1F780E0089581E008950C
:1039E0009C01FC0132969FEF80E04191461789F0DF
:1039F0009F3F19F4411101C0982F8F5F8630A9F7BE
:103A00009F3F39F0F901E90FF11D97FDFA956283A7
:103A1000089508959C012A5F3F4FFC01428146139F
:103A200001C01282019682179307B9F70895262FD5
:103A30002695269526952E3168F4FC01E20FF11D9E
:103A4000677021E030E001C0220F6A95EAF78281B9
:103A5000282B22830895262F2695269526952E31EC
:103A600070F4FC01E20FF11D677021E030E001C04D
:103A7000220F6A95EAF720958281282322830895F0
:103A800020913B01222339F02091D90227FF03C066
:103A90000E94171D08950E94F01C089520913B017B
:103AA000222339F02091D90227FF03C00E942B1D49
:103AB00008950E940A1D089520913B01FC01329651
:103AC000222331F08091D90287FF02C08EE101C02C
:103AD00086E0DF011D928A95E9F7089546E050E0FF
:103AE0000E94CE2521E0892B09F420E0822F089541
:103AF00008950E94781D089583E08093B1020E948A
:103B0000791D0895811102C081E001C082E0809397
:103B1000B1020E94791D08950E94821D089581E0DE
:103B20008093B1020E94791D08950E948F1D08950F
:103B300008950E94981D08950E94991D08950E945D
:103B4000981D08950E94981D08950E94981D08953B
:103B5000CF930E94A21D0E9482120E949F1DC0E06E
:103B60008C2F0E944D11811104C0CF5FC830C1F766
:103B700001C081E0CF91089585B7806885BF85B782
:103B8000806885BF08951F920F920FB60F9211247F
:103B90008F939F93AF93BF938091B202811113C013
:103BA0008091ED029091EE02A091EF02B091F002AF
:103BB0004196A11DB11D8093ED029093EE02A0935A
:103BC000EF02B093F002BF91AF919F918F910F9050
:103BD0000FBE0F901F9018958091F502843031F13F
:103BE0000E94A0031092B20220E488E190E00FB698
:103BF000F894A895809360000FBE2093600083B76F
:103C0000817F846083BF83B7816083BF7894889508
:103C100083B78E7F83BF0FB6F894A895809160001C
:103C2000886180936000109260000FBE08950E942A
:103C300061070E94A503089582E084BD93E095BDCD
:103C40009AEF97BD80936E0008952FB7F8948091F6
:103C5000ED029091EE02A091EF02B091F0022FBF21
:103C600008952FB7F8946091ED027091EE02809163
:103C7000EF029091F0022FBF08959C014FB7F89486
:103C80008091ED029091EE02A091EF02B091F002CE
:103C90004FBF821B930B0895CF92DF92EF92FF925A
:103CA0002FB7F894C090ED02D090EE02E090EF02B2
:103CB000F090F0022FBFA7019601261B370B480B8F
:103CC000590BCA01B901FF90EF90DF90CF90089592
:103CD00078941F920F920FB60F9211248F939F9397
:103CE000AF93BF938091ED029091EE02A091EF020D
:103CF000B091F0020196A11DB11D8093ED02909349
:103D0000EE02A093EF02B093F002BF91AF919F91AA
:103D10008F910F900FBE0F901F90189581E08093A8
:103D2000E00080E28093D8001092C9008FE19EE409
:103D30000197F1F700C0000087E090EBDC01809371
:103D4000FE029093FF02A0930003B09301039CE056
:103D500088E10FB6F894A895809360000FBE909309
:103D60006000FFCF9CE088E10FB6F894A89580939F
:103D700060000FBE90936000FFCF8091D302089542
:103D80009B019091F5029430F1F48F708093E900DB
:103D90008FEF9091E800815095FD06C095ED9A95C2
:103DA000F1F700008111F5CF8091E80085FF0BC08D
:103DB000BA01C90140E050E00E94D0208091E800A3
:103DC0008E778093E800089543E050E0BC0182E0E4
:103DD0000E94C01E089546E050E0BC0182E00E94AF
:103DE000C01E0895CF93DF93EC0180913B018111B8
:103DF00005C048E050E0BE0181E00BC08091D902CF
:103E000087FF03C040E282E002C048E081E050E06A
:103E1000BE010E94C01E80E2FE01A3EBB2E0019051
:103E20000D928A95E1F7DF91CF9108958091F40288
:103E3000811109C00E945B220E94B8228091E20099
:103E400084608093E20008951092F40208950E9425
:103E5000951D08956091F10281E0611101C080E03B
:103E60000E947C1D08959091F50281E0943009F044
:103E700080E06091F1020E94821D089542E061ECB1
:103E800081E00E94D42142E261EC82E00E94D421D0
:103E90009091F50281E0943009F080E06091F102A8
:103EA0000E948C1D08958091F702833009F461C04F
:103EB00030F4813071F0823009F49BC008958A306B
:103EC00009F487C08B3009F46CC0893009F0A9C0AF
:103ED00020C08091F602813A09F0A3C08091E800E9
:103EE000877F8093E8008091FA029091FB02892BF2
:103EF00021F460E283EB92E003C060E080E090E0B8
:103F000070E00E9415218091E8008B778093E80093
:103F100008958091F602813209F083C08091FA02FF
:103F20009091FB02029708F07CC08091E800877FA7
:103F30008093E8008091E80082FD05C08091F50241
:103F40008111F8CF6EC02091F3008091F20090E0D3
:103F5000922B029731F48091F100813011F086307C
:103F600021F48091F1008093D3028091E8008B7757
:103F700054C08091F602813A09F053C08091FA0250
:103F80009091FB02892B09F04CC08091E800877F5B
:103F90008093E8008091E80080FFFCCF80913B0196
:103FA00037C08091F6028132E1F58091FA0290915A
:103FB000FB02892BB1F58091E800877F8093E800B0
:103FC0000E9409228091F80280933B010E946107C0
:103FD00008958091F602813221F58091E800877F73
:103FE0008093E8000E9409228091F9028093D40214
:103FF00008958091F602813AA1F48091E800877FCC
:104000008093E8008091E80080FFFCCF8091D4028B
:104010008093F1008091E8008E778093E8000E9401
:104020000922089584B7877F84BF0FB6F894A895B6
:1040300080916000886180936000109260000FBEE4
:1040400090E080E80FB6F89480936100909361004F
:104050000FBE0E948F1D08950E945B220E94B8220D
:10406000E2EEF0E080818460808378940E944325B2
:10407000089583E391E00E941F1C08958091F5024A
:104080008530A9F48091F502853079F40E94EC1D09
:104090008091F3028823B1F30E94A81D882391F335
:1040A0000E94BA200E946107EDCF0E94171E08955A
:1040B00008959A014091FC025091FD020E946120F6
:1040C0000895492F552743305105C9F060F4413018
:1040D000510581F04230510509F044C08BE390E076
:1040E0004EEC53E043C041325105E1F042325105FC
:1040F00049F138C082E190E049E054E037C09927A7
:104100008130910549F028F0029761F5EAEAF3E081
:1041100005C0EAECF3E002C0EEEBF3E0849190E03E
:10412000AF0124C06115710541F061307105D1F412
:1041300089E090E049EF53E019C089E090E040EE5B
:1041400053E014C06115710541F06130710551F4FF
:1041500086EB90E04BE154E009C080E490E041ED53
:1041600054E004C080E090E040E050E0F901518369
:104170004083089580E189BD82E189BD09B400FED4
:10418000FDCF8091D8008F7D8093D8008091E00092
:1041900082608093E0008091E00081FDFCCF089573
:1041A000A0E0B0E0E6EDF0E20C948D25EC018B018F
:1041B0007A010E942822811133C0E114F10439F000
:1041C000F70180819181081B190BC80FD91FC12CE1
:1041D000D12C0115110519F18091E80085FD16C05B
:1041E0008091E8008E778093E800E114F10449F0B3
:1041F000F70180819181C80ED91ED182C08285E0ED
:104200000FC00E942822882321F30AC0899180933D
:10421000F10001501109FFEFCF1ADF0ADACF80E079
:10422000CDB7DEB7E8E00C94A9252091FC023091CF
:10423000FD022617370748F06115710539F4209102
:10424000E8002E772093E80001C0B901FC0120E0CE
:104250006115710579F18091F5028823F1F18530BE
:10426000F1F18091E80083FD3CC08091E80082FD7F
:104270002EC08091E80080FFEBCF2091F300809169
:10428000F20090E0922B6115710551F08830910594
:1042900038F421912093F100615071090196F3CF18
:1042A00021E0089709F020E08091E8008E77809364
:1042B000E800CECF2111CFCF0AC08091F50288232C
:1042C00061F0853061F08091E80083FD0AC0809143
:1042D000E80082FFF2CF80E0089582E0089583E055
:1042E000089581E008952091FC023091FD02261787
:1042F000370748F06115710539F42091E8002E77F1
:104300002093E80001C0B901FC0120E061157105AE
:1043100091F18091F502882309F440C0853009F4B9
:104320003FC08091E80083FD3DC08091E80082FDA0
:104330002FC08091E80080FFE9CF2091F3008091A9
:10434000F20090E0922B6115710559F088309105CB
:1043500040F424912093F100319661507109019647
:10436000F2CF21E0089709F020E08091E8008E77F5
:104370008093E800CBCF2111CCCF0AC08091F50209
:10438000882361F0853061F08091E80083FD0AC0E8
:104390008091E80082FFF2CF80E0089582E00895E6
:1043A00083E0089581E00895982F973068F5909301
:1043B000E900981739F07091EC002091ED005091D0
:1043C000F00003C0242F762F50E021FD02C09F5F34
:1043D000ECCF3091EB003E7F3093EB003091ED005D
:1043E0003D7F3093ED003091EB0031603093EB0076
:1043F0007093EC002093ED005093F0002091EE00BC
:1044000027FDE5CF80E008958F708093E90081E07B
:1044100008958091F60287FF11C08091E80082FD27
:1044200005C08091F5028111F8CF11C08091E8009C
:104430008B770BC08091F502882349F08091E800CA
:1044400080FFF8CF8091E8008E778093E800089590
:104450002091E4003091E50095E64091EC00842F36
:10446000817040FF23C08091E80080FD1DC08091D5
:10447000F502882399F0853099F08091EB0085FD55
:1044800011C04091E4005091E5002417350729F34D
:10449000915011F09A01E1CF84E0089582E00895EF
:1044A00083E0089581E0089580E008954091E80058
:1044B00042FFDDCF08950E94CA220E94D222E0EE80
:1044C000F0E0808181608083E8EDF0E080818F778B
:1044D000808319BCA7EDB0E08C918E7F8C93808196
:1044E0008F7E80831092F40208950F931F93CF93D1
:1044F000DF930E94CA220E94D222C8EDD0E08881B8
:104500008F77888388818068888388818F7D88837E
:1045100019BC1092F5021092F1021092F30210925F
:10452000F20200EE10E0F80180818B7F80838881A9
:104530008160888342E060E080E00E94D421E1EE67
:10454000F0E080818E7F8083E2EEF0E08081816008
:104550008083808188608083F80180818E7F808362
:10456000888180618883DF91CF911F910F91089599
:10457000E8EDF0E080818F7E8083E7EDF0E08081E0
:104580008160808384E082BF81E08093F4020E9496
:1045900075220895E8EDF0E080818E7F808310928F
:1045A000E20008951092DA001092E10008951F923F
:1045B0000F920FB60F9211242F933F934F935F9357
:1045C0006F937F938F939F93AF93BF93EF93FF93DB
:1045D0008091E10082FF0BC08091E20082FF07C062
:1045E0008091E1008B7F8093E1000E9442258091C1
:1045F000DA0080FF1FC08091D80080FF1BC080912F
:10460000DA008E7F8093DA008091D90080FF0DC0A0
:1046100080E189BD82E189BD09B400FEFDCF81E062
:104620008093F5020E94161F05C019BC1092F50276
:104630000E94241F8091E10080FF19C08091E20058
:1046400080FF15C08091E2008E7F8093E200809110
:10465000E20080618093E2008091D80080628093C4
:10466000D80019BC85E08093F5020E942A1F809132
:10467000E10084FF30C08091E20084FF2CC080E123
:1046800089BD82E189BD09B400FEFDCF8091D800CB
:104690008F7D8093D8008091E1008F7E8093E10030
:1046A0008091E2008F7E8093E2008091E200816041
:1046B0008093E2008091F102882311F084E007C02A
:1046C0008091E30087FD02C081E001C083E0809318
:1046D000F5020E94331F8091E10083FF29C0809181
:1046E000E20083FF25C08091E100877F8093E10095
:1046F00082E08093F5021092F1028091E1008E7FBA
:104700008093E1008091E2008E7F8093E2008091AF
:10471000E20080618093E20042E060E080E00E947D
:10472000D4218091F00088608093F0000E94271FC0
:10473000FF91EF91BF91AF919F918F917F916F9179
:104740005F914F913F912F910F900FBE0F901F904F
:1047500018951F920F920FB60F9211242F933F932B
:104760004F935F936F937F938F939F93AF93BF9379
:10477000CF93DF93EF93FF93C091E900CF708091C7
:10478000EC00D82FD17080FDD0E81092E900809124
:10479000F000877F8093F00078940E94ED231092C0
:1047A000E9008091F00088608093F000CD2BCF70FD
:1047B000C093E900FF91EF91DF91CF91BF91AF914D
:1047C0009F918F917F916F915F914F913F912F9129
:1047D0000F900FBE0F901F901895AAE2B0E0E3EF84
:1047E000F3E20C949225E6EFF2E08091F1008193E0
:1047F00022E0EE3FF207C9F70E94531F8091E800C4
:1048000083FF2EC18091F6029091F702492F50E06C
:104810004A30510508F024C1FA01E557FF4F0C94C6
:104820007D25803821F0823809F01AC108C08091B6
:10483000F2029091F302992389F082600FC0809177
:10484000FA028F70873008F00BC18093E9008091E5
:10485000EB0085FB882780F91092E9009091E80031
:10486000977F9093E8008093F1001092F100D1C0FF
:10487000282F2D7F09F0F4C0882319F0823061F0D1
:10488000EFC08091F802813009F0EAC0933009F05E
:1048900080E08093F3022EC08091F80281112AC03B
:1048A0008091FA028F702FEF280F263008F0D8C0C1
:1048B0008093E9002091EB0020FF1CC0933021F48D
:1048C0008091EB00806214C09091EB009061909316
:1048D000EB0021E030E0A90102C0440F551F8A958A
:1048E000E2F74093EA001092EA008091EB008860C2
:1048F0008093EB001092E9008091E800877F80931D
:10490000E8000E940922ACC08111AAC01091F802EF
:104910001F778091E3008078812B8093E300809162
:10492000E800877F8093E8000E9409228091E800D8
:1049300080FFFCCF8091E30080688093E300111139
:1049400002C082E001C083E08093F50289C08058F4
:10495000823008F085C08091F8029091F9028C3D78
:1049600053E0950779F583E08A838AE289834FB71C
:10497000F894DE01139620E03EE051E2E32FF0E0F0
:1049800050935700E49120FF03C0E295EF703F5F22
:10499000EF708E2F90E0EA3010F0C79601C0C096FD
:1049A0008D939D932F5F243149F74FBF8091E8008D
:1049B000877F8093E8006AE270E0CE0101960E9452
:1049C000152116C06091FA027091FB02AE014F5F93
:1049D0005F4F0E945920BC01892B09F441C090917E
:1049E000E800977F9093E80089819A810E94732163
:1049F0008091E8008B778093E80032C0803881F5A1
:104A00008091E800877F8093E8008091F102809395
:104A1000F1008091E8008E7772CF811121C08091E2
:104A2000F8029091F90299270297D4F48091E80056
:104A3000877F8093E8008091F8028093F1020E94C2
:104A400009228091F102811106C08091E30087FD67
:104A500002C081E001C084E08093F5020E943E1F05
:104A60008091E80083FF0AC08091E800877F8093EF
:104A7000E8008091EB0080628093EB00AA96E3E06F
:104A80000C94AE250895CF938091F5028823A1F070
:104A9000C091E900CF709091EC00892F817090FD5A
:104AA00080E8C82B1092E9008091E80083FD0E9405
:104AB000ED23CF70C093E900CF9108950E945B224F
:104AC0001092F50208958091E300881F8827881FBF
:104AD000089597FB072E16F4009407D077FD09D0B0
:104AE0000E94BA2507FC05D03EF4909581959F4F12
:104AF0000895709561957F4F0895EE0FFF1F059003
:104B0000F491E02D09942F923F924F925F926F9211
:104B10007F928F929F92AF92BF92CF92DF92EF924D
:104B2000FF920F931F93CF93DF93CDB7DEB7CA1BCE
:104B3000DB0B0FB6F894DEBF0FBECDBF09942A88F9
:104B4000398848885F846E847D848C849B84AA84A1
:104B5000B984C884DF80EE80FD800C811B81AA812E
:104B6000B981CE0FD11D0FB6F894DEBF0FBECDBFF9
:104B7000ED010895AA1BBB1B51E107C0AA1FBB1F73
:104B8000A617B70710F0A61BB70B881F991F5A95D9
:104B9000A9F780959095BC01CD010895FB01DC013A
:104BA00004C08D910190801921F441505040C8F704
:104BB000881B990B0895FB01DC0102C001900D9246
:104BC00041505040D8F70895F999FECF92BD81BD6C
:104BD000F89A992780B50895A8E1B0E042E050E046
:104BE0000C941826262FF999FECF92BD81BDF89A14
:104BF000019700B4021639F01FBA20BD0FB6F89421
:104C0000FA9AF99A0FBE08950396272F0E94F3256A
:104C10000E94F225252F0E94F325242F0C94F325C2
:104C20000196272F0E94F3250C94F225DC01CB017D
:104C3000FC01F999FECF06C0F2BDE1BDF89A3196AC
:104C400000B40D9241505040B8F70895F894FFCF4A
:104C50003402010000000100000000000000040117
:104C6000000000040500000000000004090000002E
:104C7000000000030D000000000000280850011E85
:104C80000A1401BD1EF21EEB1EE41E01E200E90043
:104C9000EA00B500B600B700CD008301CC008A0160
:104CA00092019401210223022402250226022702F6
:104CB0002A02B300B4006F0070009F01CB019F0275
:104CC000A002818283E200E900EA00B500B600B7E5
:104CD00000CD008301CC008A0192019401210223BE
:104CE0000224022502260227022A02B300B4006F22
:104CF0000070009F01CB019F02A0028182833534A6
:0A4D0000C6976631333236710200A7
:00000001FF
